{
  "_format": "hh-sol-artifact-1",
  "contractName": "MGIBDevTaskContract",
  "sourceName": "contracts/MGIBDevTaskContract.sol",
  "abi": [
    {
      "inputs": [
        {
          "internalType": "address",
          "name": "_IBContract",
          "type": "address"
        }
      ],
      "name": "getPublicKey",
      "outputs": [
        {
          "internalType": "bytes",
          "name": "",
          "type": "bytes"
        }
      ],
      "stateMutability": "view",
      "type": "function"
    },
    {
      "inputs": [
        {
          "internalType": "address",
          "name": "_IBContract",
          "type": "address"
        },
        {
          "internalType": "string",
          "name": "data",
          "type": "string"
        }
      ],
      "name": "sendTaskIB",
      "outputs": [],
      "stateMutability": "nonpayable",
      "type": "function"
    }
  ],
  "bytecode": "0x608060405234801561001057600080fd5b5061059d806100206000396000f3fe608060405234801561001057600080fd5b50600436106100365760003560e01c806369c6b5f91461003b578063857cdbb814610057575b600080fd5b6100556004803603810190610050919061024d565b610087565b005b610071600480360381019061006c91906102ad565b6100f9565b60405161007e919061036a565b60405180910390f35b8273ffffffffffffffffffffffffffffffffffffffff1663b779808483836040518363ffffffff1660e01b81526004016100c29291906103d9565b600060405180830381600087803b1580156100dc57600080fd5b505af11580156100f0573d6000803e3d6000fd5b50505050505050565b60608173ffffffffffffffffffffffffffffffffffffffff166363ffab316040518163ffffffff1660e01b8152600401600060405180830381865afa158015610146573d6000803e3d6000fd5b505050506040513d6000823e3d601f19601f8201168201806040525081019061016f919061051e565b9050919050565b6000604051905090565b600080fd5b600080fd5b600073ffffffffffffffffffffffffffffffffffffffff82169050919050565b60006101b58261018a565b9050919050565b6101c5816101aa565b81146101d057600080fd5b50565b6000813590506101e2816101bc565b92915050565b600080fd5b600080fd5b600080fd5b60008083601f84011261020d5761020c6101e8565b5b8235905067ffffffffffffffff81111561022a576102296101ed565b5b602083019150836001820283011115610246576102456101f2565b5b9250929050565b60008060006040848603121561026657610265610180565b5b6000610274868287016101d3565b935050602084013567ffffffffffffffff81111561029557610294610185565b5b6102a1868287016101f7565b92509250509250925092565b6000602082840312156102c3576102c2610180565b5b60006102d1848285016101d3565b91505092915050565b600081519050919050565b600082825260208201905092915050565b60005b838110156103145780820151818401526020810190506102f9565b60008484015250505050565b6000601f19601f8301169050919050565b600061033c826102da565b61034681856102e5565b93506103568185602086016102f6565b61035f81610320565b840191505092915050565b600060208201905081810360008301526103848184610331565b905092915050565b600082825260208201905092915050565b82818337600083830152505050565b60006103b8838561038c565b93506103c583858461039d565b6103ce83610320565b840190509392505050565b600060208201905081810360008301526103f48184866103ac565b90509392505050565b600080fd5b7f4e487b7100000000000000000000000000000000000000000000000000000000600052604160045260246000fd5b61043a82610320565b810181811067ffffffffffffffff8211171561045957610458610402565b5b80604052505050565b600061046c610176565b90506104788282610431565b919050565b600067ffffffffffffffff82111561049857610497610402565b5b6104a182610320565b9050602081019050919050565b60006104c16104bc8461047d565b610462565b9050828152602081018484840111156104dd576104dc6103fd565b5b6104e88482856102f6565b509392505050565b600082601f830112610505576105046101e8565b5b81516105158482602086016104ae565b91505092915050565b60006020828403121561053457610533610180565b5b600082015167ffffffffffffffff81111561055257610551610185565b5b61055e848285016104f0565b9150509291505056fea26469706673582212205f8809c6256004d281622d11c4fd5af1ea9974e81bca17ddb4926b082ff098f064736f6c63430008100033",
  "linkReferences": {},
  "deployedLinkReferences": {}
}